{"abi":[{"type":"constructor","inputs":[{"name":"_nonfungiblePositionManagerAddress","type":"address","internalType":"address"},{"name":"_uniswapRouter","type":"address","internalType":"address"},{"name":"_paraswapRouter","type":"address","internalType":"address"},{"name":"_uniswapV3factory","type":"address","internalType":"address"},{"name":"_paraswapSwapManager","type":"address","internalType":"address"},{"name":"_uniswapV3SwapManager","type":"address","internalType":"address"},{"name":"_feeRecipientAddress","type":"address","internalType":"address"},{"name":"_protocolFee","type":"uint256","internalType":"uint256"}],"stateMutability":"nonpayable"},{"type":"function","name":"accountingUnit","inputs":[{"name":"","type":"address","internalType":"address"}],"outputs":[{"name":"","type":"address","internalType":"address"}],"stateMutability":"view"},{"type":"function","name":"admins","inputs":[{"name":"","type":"address","internalType":"address"}],"outputs":[{"name":"","type":"bool","internalType":"bool"}],"stateMutability":"view"},{"type":"function","name":"allTransfersApproved","inputs":[],"outputs":[{"name":"","type":"bool","internalType":"bool"}],"stateMutability":"view"},{"type":"function","name":"approvePositionTransfers","inputs":[{"name":"_tokenIds","type":"uint256[]","internalType":"uint256[]"},{"name":"_approved","type":"bool","internalType":"bool"}],"outputs":[],"stateMutability":"nonpayable"},{"type":"function","name":"closePosition","inputs":[{"name":"_tokenId","type":"uint256","internalType":"uint256"},{"name":"_pSwapData0","type":"bytes","internalType":"bytes"},{"name":"_pSwapData1","type":"bytes","internalType":"bytes"},{"name":"_minBuyAmount0","type":"uint256","internalType":"uint256"},{"name":"_minBuyAmount1","type":"uint256","internalType":"uint256"}],"outputs":[{"name":"_amount0","type":"uint256","internalType":"uint256"},{"name":"_amount1","type":"uint256","internalType":"uint256"}],"stateMutability":"nonpayable"},{"type":"function","name":"collectFees","inputs":[{"name":"tokenId","type":"uint256","internalType":"uint256"},{"name":"recipient","type":"address","internalType":"address"}],"outputs":[{"name":"feesToken0","type":"uint256","internalType":"uint256"},{"name":"feesToken1","type":"uint256","internalType":"uint256"}],"stateMutability":"nonpayable"},{"type":"function","name":"compoundPosition","inputs":[{"name":"_tokenId","type":"uint256","internalType":"uint256"},{"name":"_pSwapData0","type":"bytes","internalType":"bytes"},{"name":"_pSwapData1","type":"bytes","internalType":"bytes"},{"name":"_token0MaxSlippage","type":"uint256","internalType":"uint256"},{"name":"_token1MaxSlippage","type":"uint256","internalType":"uint256"}],"outputs":[{"name":"_feesToken0","type":"uint256","internalType":"uint256"},{"name":"_feesToken1","type":"uint256","internalType":"uint256"}],"stateMutability":"nonpayable"},{"type":"function","name":"decreaseLiquidity","inputs":[{"name":"_tokenId","type":"uint256","internalType":"uint256"},{"name":"_amountInBPS","type":"uint128","internalType":"uint128"},{"name":"_pSwapData0","type":"bytes","internalType":"bytes"},{"name":"_pSwapData1","type":"bytes","internalType":"bytes"}],"outputs":[{"name":"_amount0","type":"uint256","internalType":"uint256"},{"name":"_amount1","type":"uint256","internalType":"uint256"}],"stateMutability":"nonpayable"},{"type":"function","name":"feeRecipientAddress","inputs":[],"outputs":[{"name":"","type":"address","internalType":"address"}],"stateMutability":"view"},{"type":"function","name":"getSwapInfo","inputs":[{"name":"_tokenId","type":"uint256","internalType":"uint256"}],"outputs":[{"name":"token0","type":"address","internalType":"address"},{"name":"token1","type":"address","internalType":"address"},{"name":"token0Decimals","type":"uint8","internalType":"uint8"},{"name":"token1Decimals","type":"uint8","internalType":"uint8"},{"name":"tokensOwed0","type":"uint128","internalType":"uint128"},{"name":"tokensOwed1","type":"uint128","internalType":"uint128"},{"name":"protocolFee0","type":"uint256","internalType":"uint256"},{"name":"protocolFee1","type":"uint256","internalType":"uint256"},{"name":"principal0","type":"uint256","internalType":"uint256"},{"name":"principal1","type":"uint256","internalType":"uint256"},{"name":"ownerAccountingUnit","type":"address","internalType":"address"},{"name":"ownerAccountingUnitDecimals","type":"uint8","internalType":"uint8"}],"stateMutability":"view"},{"type":"function","name":"increaseLiquidity","inputs":[{"name":"_tokenId","type":"uint256","internalType":"uint256"},{"name":"_amountAdd0","type":"uint256","internalType":"uint256"},{"name":"_amountAdd1","type":"uint256","internalType":"uint256"}],"outputs":[{"name":"_liquidity","type":"uint128","internalType":"uint128"},{"name":"_amount0","type":"uint256","internalType":"uint256"},{"name":"_amount1","type":"uint256","internalType":"uint256"}],"stateMutability":"nonpayable"},{"type":"function","name":"nonfungiblePositionManager","inputs":[],"outputs":[{"name":"","type":"address","internalType":"contract INonfungiblePositionManager"}],"stateMutability":"view"},{"type":"function","name":"openPosition","inputs":[{"name":"_params","type":"tuple","internalType":"struct INonfungiblePositionManager.MintParams","components":[{"name":"token0","type":"address","internalType":"address"},{"name":"token1","type":"address","internalType":"address"},{"name":"fee","type":"uint24","internalType":"uint24"},{"name":"tickLower","type":"int24","internalType":"int24"},{"name":"tickUpper","type":"int24","internalType":"int24"},{"name":"amount0Desired","type":"uint256","internalType":"uint256"},{"name":"amount1Desired","type":"uint256","internalType":"uint256"},{"name":"amount0Min","type":"uint256","internalType":"uint256"},{"name":"amount1Min","type":"uint256","internalType":"uint256"},{"name":"recipient","type":"address","internalType":"address"},{"name":"deadline","type":"uint256","internalType":"uint256"}]},{"name":"_owner","type":"address","internalType":"address"},{"name":"_accountingUnit","type":"address","internalType":"address"}],"outputs":[{"name":"tokenId","type":"uint256","internalType":"uint256"},{"name":"liquidity","type":"uint128","internalType":"uint128"},{"name":"amount0","type":"uint256","internalType":"uint256"},{"name":"amount1","type":"uint256","internalType":"uint256"}],"stateMutability":"nonpayable"},{"type":"function","name":"owners","inputs":[{"name":"","type":"uint256","internalType":"uint256"}],"outputs":[{"name":"","type":"address","internalType":"address"}],"stateMutability":"view"},{"type":"function","name":"paraswapRouter","inputs":[],"outputs":[{"name":"","type":"address","internalType":"address"}],"stateMutability":"view"},{"type":"function","name":"paraswapSwapManager","inputs":[],"outputs":[{"name":"","type":"address","internalType":"address"}],"stateMutability":"view"},{"type":"function","name":"protocolFee","inputs":[],"outputs":[{"name":"","type":"uint256","internalType":"uint256"}],"stateMutability":"view"},{"type":"function","name":"setAccountingUnit","inputs":[{"name":"_user","type":"address","internalType":"address"},{"name":"_accountingUnit","type":"address","internalType":"address"}],"outputs":[],"stateMutability":"nonpayable"},{"type":"function","name":"setAdmin","inputs":[{"name":"_admin","type":"address","internalType":"address"}],"outputs":[],"stateMutability":"nonpayable"},{"type":"function","name":"setAllTransfersApproved","inputs":[{"name":"_approved","type":"bool","internalType":"bool"}],"outputs":[],"stateMutability":"nonpayable"},{"type":"function","name":"setFeeRecpientAddress","inputs":[{"name":"_feeRecipientAddress","type":"address","internalType":"address"}],"outputs":[],"stateMutability":"nonpayable"},{"type":"function","name":"setProtocolFee","inputs":[{"name":"_protocolFee","type":"uint256","internalType":"uint256"}],"outputs":[],"stateMutability":"nonpayable"},{"type":"function","name":"transferApproved","inputs":[{"name":"","type":"uint256","internalType":"uint256"}],"outputs":[{"name":"","type":"bool","internalType":"bool"}],"stateMutability":"view"},{"type":"function","name":"transferPosition","inputs":[{"name":"_tokenId","type":"uint256","internalType":"uint256"},{"name":"_newOwner","type":"address","internalType":"address"}],"outputs":[],"stateMutability":"nonpayable"},{"type":"function","name":"uniswapRouter","inputs":[],"outputs":[{"name":"","type":"address","internalType":"address"}],"stateMutability":"view"},{"type":"function","name":"uniswapV3SwapManager","inputs":[],"outputs":[{"name":"","type":"address","internalType":"address"}],"stateMutability":"view"},{"type":"function","name":"uniswapV3factory","inputs":[],"outputs":[{"name":"","type":"address","internalType":"address"}],"stateMutability":"view"},{"type":"event","name":"AllTransfersApprovalSet","inputs":[{"name":"approved","type":"bool","indexed":false,"internalType":"bool"}],"anonymous":false},{"type":"event","name":"FeesCollected","inputs":[{"name":"tokenId","type":"uint256","indexed":true,"internalType":"uint256"},{"name":"amount0","type":"uint256","indexed":true,"internalType":"uint256"},{"name":"amount1","type":"uint256","indexed":false,"internalType":"uint256"}],"anonymous":false},{"type":"event","name":"PositionClosed","inputs":[{"name":"tokenId","type":"uint256","indexed":true,"internalType":"uint256"},{"name":"amount0","type":"uint256","indexed":true,"internalType":"uint256"},{"name":"amount1","type":"uint256","indexed":true,"internalType":"uint256"}],"anonymous":false},{"type":"event","name":"PositionCompounded","inputs":[{"name":"tokenId","type":"uint256","indexed":true,"internalType":"uint256"},{"name":"amount0","type":"uint256","indexed":true,"internalType":"uint256"},{"name":"amount1","type":"uint256","indexed":true,"internalType":"uint256"}],"anonymous":false},{"type":"event","name":"PositionDecreased","inputs":[{"name":"tokenId","type":"uint256","indexed":true,"internalType":"uint256"},{"name":"liquidity","type":"uint128","indexed":false,"internalType":"uint128"},{"name":"amount0","type":"uint256","indexed":true,"internalType":"uint256"},{"name":"amount1","type":"uint256","indexed":true,"internalType":"uint256"}],"anonymous":false},{"type":"event","name":"PositionIncreased","inputs":[{"name":"tokenId","type":"uint256","indexed":true,"internalType":"uint256"},{"name":"liquidity","type":"uint128","indexed":false,"internalType":"uint128"},{"name":"amount0","type":"uint256","indexed":true,"internalType":"uint256"},{"name":"amount1","type":"uint256","indexed":true,"internalType":"uint256"}],"anonymous":false},{"type":"event","name":"PositionOpened","inputs":[{"name":"tokenId","type":"uint256","indexed":true,"internalType":"uint256"},{"name":"pool","type":"address","indexed":false,"internalType":"address"},{"name":"amount0","type":"uint256","indexed":false,"internalType":"uint256"},{"name":"amount1","type":"uint256","indexed":false,"internalType":"uint256"},{"name":"tickLower","type":"int24","indexed":false,"internalType":"int24"},{"name":"tickUpper","type":"int24","indexed":false,"internalType":"int24"}],"anonymous":false},{"type":"event","name":"PositionTransferred","inputs":[{"name":"tokenId","type":"uint256","indexed":true,"internalType":"uint256"},{"name":"from","type":"address","indexed":true,"internalType":"address"},{"name":"to","type":"address","indexed":true,"internalType":"address"}],"anonymous":false},{"type":"event","name":"TransferApprovalSet","inputs":[{"name":"tokenId","type":"uint256","indexed":true,"internalType":"uint256"},{"name":"approved","type":"bool","indexed":false,"internalType":"bool"}],"anonymous":false},{"type":"error","name":"EmptyContract","inputs":[{"name":"","type":"address","internalType":"address"}]},{"type":"error","name":"InvalidBpsAmount","inputs":[{"name":"","type":"uint256","internalType":"uint256"}]},{"type":"error","name":"T","inputs":[]},{"type":"error","name":"TransferLocked","inputs":[{"name":"","type":"uint256","internalType":"uint256"}]},{"type":"error","name":"Unauthorized","inputs":[{"name":"","type":"address","internalType":"address"}]}],"bytecode":{"object":"0x60e03461018f57601f61561238819003918201601f19168301916001600160401b03831184841017610193578084926101009460405283398101031261018f57610048816101a7565b90610055602082016101a7565b610061604083016101a7565b61006d606084016101a7565b610079608085016101a7565b9161008660a086016101a7565b9360e061009560c088016101a7565b9601516001600160a01b0397881660805260a09190915260c091909152600380549287166001600160a01b031993841617905560048054938716938316939093179092556005805493861693821693909317909255600680549490931693909116929092179055600755335f9081526020819052604090819020805460ff191660011790555161545690816101bc82396080518181816102b8015281816111750152818161133b01528181611cf80152818161297c01528181612c66015281816131b9015281816140240152818161456901526147c2015260a05181818161191701526152b4015260c05181818161122201526150af0152f35b5f80fd5b634e487b7160e01b5f52604160045260245ffd5b51906001600160a01b038216820361018f5756fe60a0806040526004361015610012575f80fd5b5f6080525f3560e01c908162c4b81614613c0257508063025e7c2714613ba45780630ac28c4414613b16578063429b62e514613aaf57806345e9178d146134ef5780634a3ec2cc146134765780634a8842e0146134365780635159ddfe14612fca57806351f3b4bd14612b2157806355bd513f1461289d5780635eec181514611b9157806363f563ee14611a565780636e8e2cd414611a03578063704b6c021461193b578063735de9f7146118cb578063787dce3d146118765780638137c5b9146117c15780639584220e1461170f5780639b5605f714611246578063a2017d51146111d6578063b0e21e8a14611199578063b44a272214611129578063cbcb6784146110d8578063e115bc5c14610f89578063ea1ed860146101f4578063eae642c9146101a15763f1bab2ec14610148575f80fd5b3461019b576080517ffffffffffffffffffffffffffffffffffffffffffffffffffffffffffffffffc36011261019b57602073ffffffffffffffffffffffffffffffffffffffff60065416604051908152f35b60805180fd5b3461019b576080517ffffffffffffffffffffffffffffffffffffffffffffffffffffffffffffffffc36011261019b57602073ffffffffffffffffffffffffffffffffffffffff60035416604051908152f35b3461019b5760a07ffffffffffffffffffffffffffffffffffffffffffffffffffffffffffffffffc36011261019b5760043560243567ffffffffffffffff811161019b57610246903690600401613e02565b9060443567ffffffffffffffff811161019b57610267903690600401613e02565b8160805152600160205273ffffffffffffffffffffffffffffffffffffffff60406080512054163303610f595761039b926102a183613f81565b73ffffffffffffffffffffffffffffffffffffffff7f00000000000000000000000000000000000000000000000000000000000000001692604080516102e681613cfc565b8681523060208201526fffffffffffffffffffffffffffffffff828201526fffffffffffffffffffffffffffffffff60608201528151809881927ffc6f78650000000000000000000000000000000000000000000000000000000083526004830191909160606fffffffffffffffffffffffffffffffff8160808401958051855273ffffffffffffffffffffffffffffffffffffffff6020820151166020860152826040820151166040860152015116910152565b0381608051885af19283156109ef5773ffffffffffffffffffffffffffffffffffffffff966080519060805195610f25575b50610401906103fb898651166103f5886103ef8560208b019e8f511694614e7e565b92614e7e565b92613f29565b95613f29565b946040517fc45a0155000000000000000000000000000000000000000000000000000000008152602081600481855afa9081156109ef5760805191610ee5575b508451895160408088015190517f1698ee8200000000000000000000000000000000000000000000000000000000815273ffffffffffffffffffffffffffffffffffffffff9384166004820152918316602483015262ffffff16604482015291602091839190829081606481015b0392165afa9081156109ef5760805191610eab575b5073ffffffffffffffffffffffffffffffffffffffff855116600473ffffffffffffffffffffffffffffffffffffffff8b511691606088015160020b92608089015160020b938b73ffffffffffffffffffffffffffffffffffffffff6040519761052d89613d18565b1695868852602088019485526040880193845260608801928d84526080890192835260a089015260c08801528860e08801528961010088015260643561012088015260843561014088015260805150608051506080519660e060805197604051978880927f3850c7bd0000000000000000000000000000000000000000000000000000000082525afa9586156109ef5760805196610e74575b5073ffffffffffffffffffffffffffffffffffffffff8616956105e98780613e7e565b60a083015160609190911c97906106029060020b614845565b9161061360c085015160020b614845565b6080519390929091849190848473ffffffffffffffffffffffffffffffffffffffff80831690821611610e69575b505073ffffffffffffffffffffffffffffffffffffffff841692838311610d98575050505061067e916c0100000000000000000000000091614f74565b905b81610ce557505082519260015b84610b0a575b505050505050505073ffffffffffffffffffffffffffffffffffffffff8651166040517f70a08231000000000000000000000000000000000000000000000000000000008152306004820152602081602481855afa9081156109ef5760805191610ad6575b506040517f095ea7b300000000000000000000000000000000000000000000000000000000815273ffffffffffffffffffffffffffffffffffffffff8616600482015260248101919091529060209082908180604481015b0391608051905af180156109ef57610a9f575b5073ffffffffffffffffffffffffffffffffffffffff8a511692604051907f70a08231000000000000000000000000000000000000000000000000000000008252306004830152602082602481885afa9182156109ef5760805192610a69575b506040517f095ea7b300000000000000000000000000000000000000000000000000000000815273ffffffffffffffffffffffffffffffffffffffff909116600482015260248101919091529260209084908180604481015b0391608051905af180156109ef57610a2e575b61086992506040519161084183613d35565b89835260208301526040820152608051606082015260805160808201524260a0820152614708565b5050508560805152600160205273ffffffffffffffffffffffffffffffffffffffff80806040608051205416945116975116966040517f70a08231000000000000000000000000000000000000000000000000000000008152306004820152602081602481855afa9081156109ef57608051916109fc575b50604051917f70a082310000000000000000000000000000000000000000000000000000000083523060048401526020836024818d5afa9283156109ef57608051936109ac575b509060409961097696959493928b519661094188613cdf565b875260208701528a8601526060850152608084015260805160a084015260805160c084015260e0830152610100820152614239565b81818551947ff96db9791a2bc302172649f5fc64aef8b4e07d7f67dfa3f1618e3ed172ac381c608051608051a482526020820152f35b9594939250906020863d6020116109e7575b816109cb60209383613d51565b810103126109e3579451939492939192906040610928565b5f80fd5b3d91506109be565b6040513d608051823e3d90fd5b90506020813d602011610a26575b81610a1760209383613d51565b810103126109e35751896108e1565b3d9150610a0a565b6020833d602011610a61575b81610a4760209383613d51565b8101031261019b57610a5b61086993613ede565b5061082f565b3d9150610a3a565b91506020823d602011610a97575b81610a8460209383613d51565b810103126109e35790519061081c6107c3565b3d9150610a77565b6020813d602011610ace575b81610ab860209383613d51565b8101031261019b57610ac990613ede565b610763565b3d9150610aab565b90506020813d602011610b02575b81610af160209383613d51565b810103126109e357516107506106f8565b3d9150610ae4565b989193959790929496985f14610c02575050610b2a84610b319251613f29565b9684613e7e565b9461012082015161271003936127108511610bd15760e073ffffffffffffffffffffffffffffffffffffffff806d2710000000000000000000000000610b7d610bbe99610bc49c613e7e565b608051506080515060805150049451169751169301519260405196610ba188613c96565b875260208701526040860152606085015260808401525191615063565b90614f20565b8a80808080808080610693565b7f4e487b71000000000000000000000000000000000000000000000000000000006080515260116004526024608051fd5b969193959488610c159199949299613e7e565b60601c9384610c2b575b50505050505050610bc4565b919380969850610c3e9193959750613e5c565b610140830151612710036127108111610bd157610c5a91613e7e565b916127108502948086046127101490151715610bd157610cd99661010073ffffffffffffffffffffffffffffffffffffffff80610c9d610cd299610bbe98613e91565b9351169651169201519160405195610cb487613c96565b86526020860152866040860152606085015260808401525191615063565b9251613f29565b8a808080808080610c1f565b80610d08575050610cff86610cfa8451613e5c565b613e91565b9260805161068d565b610cfa610d1492613e5c565b92610d20835185613e7e565b610d2a8251613e5c565b11938415610d7557610d6f90610d69610d618a610d5b610d4a8751613e5c565b610d558a5187613e7e565b90613f29565b93613e7e565b60601c614f06565b90613e91565b9361068d565b610d6f90610d69610d618a610d5b610d8e895186613e7e565b610d558851613e5c565b9395509193909273ffffffffffffffffffffffffffffffffffffffff821680851015610e295750509181610df36c0100000000000000000000000073ffffffffffffffffffffffffffffffffffffffff95610e199795614f74565b95819281946080515011610e1e575b505003166c010000000000000000000000006152fb565b610680565b915091505f80610e02565b9095610e199573ffffffffffffffffffffffffffffffffffffffff95509093508291849111610e1e57505003166c010000000000000000000000006152fb565b955093505f80610641565b610e9791965060e03d60e011610ea4575b610e8f8183613d51565b8101906141c2565b505050505050945f6105c6565b503d610e85565b90506020813d602011610edd575b81610ec660209383613d51565b8101031261019b57610ed790613eeb565b896104c4565b3d9150610eb9565b90506020813d602011610f1d575b81610f0060209383613d51565b8101031261019b576020610f166104af92613eeb565b9150610441565b3d9150610ef3565b6104019550610f4c915060403d604011610f52575b610f448183613d51565b810190613ec8565b946103cd565b503d610f3a565b7f8e4a23d60000000000000000000000000000000000000000000000000000000060805152336004526024608051fd5b3461019b5760607ffffffffffffffffffffffffffffffffffffffffffffffffffffffffffffffffc36011261019b57600435602435906044358160805152600160205273ffffffffffffffffffffffffffffffffffffffff60406080512054163303610f595760609261108491836080515260016020526110508173ffffffffffffffffffffffffffffffffffffffff60406080512054168461102b88613f81565b73ffffffffffffffffffffffffffffffffffffffff602081835116920151169261445f565b6040519161105d83613d35565b848352602083015260408201526080518482015260805160808201524260a0820152614708565b818193947f84e54e6e3ce147ce54f475be42eaeabf47d9d784a1f3fc30594878b746633b3a60206fffffffffffffffffffffffffffffffff604051981697888152a460405192835260208301526040820152f35b3461019b5760207ffffffffffffffffffffffffffffffffffffffffffffffffffffffffffffffffc36011261019b57600435608051526008602052602060ff60406080512054166040519015158152f35b3461019b576080517ffffffffffffffffffffffffffffffffffffffffffffffffffffffffffffffffc36011261019b57602060405173ffffffffffffffffffffffffffffffffffffffff7f0000000000000000000000000000000000000000000000000000000000000000168152f35b3461019b576080517ffffffffffffffffffffffffffffffffffffffffffffffffffffffffffffffffc36011261019b576020600754604051908152f35b3461019b576080517ffffffffffffffffffffffffffffffffffffffffffffffffffffffffffffffffc36011261019b57602060405173ffffffffffffffffffffffffffffffffffffffff7f0000000000000000000000000000000000000000000000000000000000000000168152f35b3461019b5760a07ffffffffffffffffffffffffffffffffffffffffffffffffffffffffffffffffc36011261019b5760043560243567ffffffffffffffff811161019b57611298903690600401613e20565b60449291923567ffffffffffffffff811161019b576112bb903690600401613e20565b8360809592955152600160205273ffffffffffffffffffffffffffffffffffffffff6040608051205416331415806116f3575b610f59578360805152600160205273ffffffffffffffffffffffffffffffffffffffff60406080512054169061132385613f81565b9273ffffffffffffffffffffffffffffffffffffffff7f0000000000000000000000000000000000000000000000000000000000000000169461141460406fffffffffffffffffffffffffffffffff60a08801511681519061138482613c96565b8a825260208201526080518282015260805160608201524260808201528151809381927f0c49ccbe0000000000000000000000000000000000000000000000000000000083526004830191909160808060a0830194805184526fffffffffffffffffffffffffffffffff602082015116602085015260408101516040850152606081015160608501520151910152565b03816080518b5af180156109ef576116d5575b506114ed6040805161143881613cfc565b8981523060208201526fffffffffffffffffffffffffffffffff828201526fffffffffffffffffffffffffffffffff60608201528151809381927ffc6f78650000000000000000000000000000000000000000000000000000000083526004830191909160606fffffffffffffffffffffffffffffffff8160808401958051855273ffffffffffffffffffffffffffffffffffffffff6020820151166020860152826040820151166040860152015116910152565b03816080518b5af19586156109ef5760805191608051976116b2575b5061158773ffffffffffffffffffffffffffffffffffffffff8251169261158160208401946103f573ffffffffffffffffffffffffffffffffffffffff875116916103ef6fffffffffffffffffffffffffffffffff60c0890151166fffffffffffffffffffffffffffffffff60e08a01511692614e7e565b98613f29565b97803b1561019b57604051907f42966c680000000000000000000000000000000000000000000000000000000082528a60048301528160248160805193608051905af180156109ef5761168b575b5061164a9360409a9361165597969373ffffffffffffffffffffffffffffffffffffffff8061163e955116915116908d51986116108a613cdf565b895260208901528c88015288606088015289608088015260643560a088015260843560c08801523691613dcc565b60e08501523691613dcc565b610100820152614239565b81818551947f74c8f0c73d3900d6e7ac43e66f3bc9ff789fb82245f839c795d0e3163ac6e308608051608051a482526020820152f35b608051949a939695929461169e91613d51565b60805161019b578a999391949592996115d5565b9096506116ce915060403d604011610f5257610f448183613d51565b958a611509565b6116ed9060403d604011610f5257610f448183613d51565b50611427565b50336080515260805160205260ff6040608051205416156112ee565b3461019b5760407ffffffffffffffffffffffffffffffffffffffffffffffffffffffffffffffffc36011261019b57611746613c50565b73ffffffffffffffffffffffffffffffffffffffff611763613c73565b9116803303610f595760805152600260205273ffffffffffffffffffffffffffffffffffffffff60406080512091167fffffffffffffffffffffffff0000000000000000000000000000000000000000825416179055608051608051f35b3461019b5760207ffffffffffffffffffffffffffffffffffffffffffffffffffffffffffffffffc36011261019b576004358015159081900361019b57336080515260805160205260ff604060805120541615610f595760207fb746b15a602ce98ebc54d01fbfc6b6e99380b4599009997adb31838e13ed3e7b917fffffffffffffffffffffffffffffffffffffffffffffffffffffffffffffff006009541660ff821617600955604051908152a160805180f35b3461019b5760207ffffffffffffffffffffffffffffffffffffffffffffffffffffffffffffffffc36011261019b57336080515260805160205260ff604060805120541615610f595760043560075560805180f35b3461019b576080517ffffffffffffffffffffffffffffffffffffffffffffffffffffffffffffffffc36011261019b57602060405173ffffffffffffffffffffffffffffffffffffffff7f0000000000000000000000000000000000000000000000000000000000000000168152f35b3461019b5760207ffffffffffffffffffffffffffffffffffffffffffffffffffffffffffffffffc36011261019b57611972613c50565b336080515260805160205260ff604060805120541615610f595773ffffffffffffffffffffffffffffffffffffffff6119fd9116806080515260805160205260ff60406080512054161590608051526080516020526040608051209060ff7fffffffffffffffffffffffffffffffffffffffffffffffffffffffffffffff0083541691151516179055565b60805180f35b3461019b576080517ffffffffffffffffffffffffffffffffffffffffffffffffffffffffffffffffc36011261019b57602073ffffffffffffffffffffffffffffffffffffffff60055416604051908152f35b3461019b5760407ffffffffffffffffffffffffffffffffffffffffffffffffffffffffffffffffc36011261019b5760043567ffffffffffffffff811161019b573660238201121561019b57806004013567ffffffffffffffff811161019b576024820191602436918360051b01011161019b576024358015159081810361019b57336080515260805160205260ff604060805120541615610f59576080515b838110611b035760805180f35b80611b116001928688613f36565b35608051526008602052611b55836040608051209060ff7fffffffffffffffffffffffffffffffffffffffffffffffffffffffffffffff0083541691151516179055565b611b60818688613f36565b357f3b0dbb38decd651ef41ae59f1226cb86e404ea75834663de18fcbe06ea9bb6ff6020604051878152a201611af6565b3461019b577ffffffffffffffffffffffffffffffffffffffffffffffffffffffffffffffffc36016101a0811261019b576101601361019b57604051611bd681613d18565b611bde613c50565b8152611be8613c73565b90602081019182526044359062ffffff8216820361019b576040810191825260643591600283900b830361019b576060820192835260843591600283900b830361019b576080810192835260a081019260a435845260c082019460c435865260e083019260e435845261010081019661010435885260805150610124359773ffffffffffffffffffffffffffffffffffffffff8916890361019b576101208301988952610140830199610144358b5260805150610164359373ffffffffffffffffffffffffffffffffffffffff85169b8c860361019b57610184359b73ffffffffffffffffffffffffffffffffffffffff8d168d0361019b5773ffffffffffffffffffffffffffffffffffffffff7f000000000000000000000000000000000000000000000000000000000000000016946040517fc45a01550000000000000000000000000000000000000000000000000000000081526020816004818a5afa80156109ef578d916080519161285a575b508551875192516040517f1698ee8200000000000000000000000000000000000000000000000000000000815273ffffffffffffffffffffffffffffffffffffffff9283166004820152938216602485015262ffffff1660448401526020918391829081606481015b0392165afa80156109ef576080519061280d575b73ffffffffffffffffffffffffffffffffffffffff9150169a8b1561278957600460208d604051928380927fd0c93a7c0000000000000000000000000000000000000000000000000000000082525afa9081156109ef576080519161274f575b50611e45818c5160020b61444d565b60020b159081612736575b50156126b257895160020b8b5160020b8082129182612671575b505015612613578d5115801590612609575b156125ab578351421161254d5773ffffffffffffffffffffffffffffffffffffffff83511630036124c9578d9c898e875173ffffffffffffffffffffffffffffffffffffffff169051895173ffffffffffffffffffffffffffffffffffffffff16908c5192611eea9461445f565b6040519d8e917f88316456000000000000000000000000000000000000000000000000000000008352875173ffffffffffffffffffffffffffffffffffffffff166004840152885173ffffffffffffffffffffffffffffffffffffffff1660248401525162ffffff1660448301528b5160020b60648301528c5160020b6084830152519060a401528c88519060c401525160e48d0152516101048c01525173ffffffffffffffffffffffffffffffffffffffff166101248b0152516101448a01526080518984815a9361016492608095f1998a156109ef576080519b6080519d6080519b6080519d612471575b508d608051526001602052604060805120817fffffffffffffffffffffffff000000000000000000000000000000000000000082541617905560805152600260205273ffffffffffffffffffffffffffffffffffffffff60406080512091167fffffffffffffffffffffffff000000000000000000000000000000000000000082541617905580518a106122d3575b5050825189106120ee575b505050507fe7a4f3e9a3e9583a23defc82317e21b349cb0a6a871502bb78081bb1d141ff8a60a06fffffffffffffffffffffffffffffffff946080999489945160020b905160020b9060405192835288602084015289604084015260608301528a820152a260405194855216602084015260408301526060820152f35b602073ffffffffffffffffffffffffffffffffffffffff825116926044604051809581937f095ea7b300000000000000000000000000000000000000000000000000000000835260048301526080516024830152608051905af19182156109ef578992612271575b50916121816121d9949273ffffffffffffffffffffffffffffffffffffffff60209551169251613f29565b6040517fa9059cbb00000000000000000000000000000000000000000000000000000000815273ffffffffffffffffffffffffffffffffffffffff909316600484015260248301529092839190829081906044820190565b0391608051905af180156109ef576121f4575b808080612071565b9691906020883d602011612269575b8161221060209383613d51565b8101031261019b5760a06fffffffffffffffffffffffffffffffff9488937fe7a4f3e9a3e9583a23defc82317e21b349cb0a6a871502bb78081bb1d141ff8a9361225b60809c613ede565b5094509499509450506121ec565b3d9150612203565b939150916020843d6020116122cb575b8161228e60209383613d51565b8101031261019b576121818973ffffffffffffffffffffffffffffffffffffffff6020956122be6121d998613ede565b5093955050929450612156565b3d9150612281565b81602073ffffffffffffffffffffffffffffffffffffffff6044945116604051948580927f095ea7b30000000000000000000000000000000000000000000000000000000082528960048301526080516024830152608051905af19283156109ef578b93612411575b50906123666123bf9373ffffffffffffffffffffffffffffffffffffffff60209451169251613f29565b9060405180809581947fa9059cbb0000000000000000000000000000000000000000000000000000000083528b600484016020909392919373ffffffffffffffffffffffffffffffffffffffff60408201951681520152565b0391608051905af180156109ef576123d8575b80612066565b6020813d602011612409575b816123f160209383613d51565b8101031261019b5761240290613ede565b508b6123d2565b3d91506123e4565b9250906020833d602011612469575b8161242d60209383613d51565b8101031261019b576123668b73ffffffffffffffffffffffffffffffffffffffff60209461245d6123bf97613ede565b5093945050935061233c565b3d9150612420565b9e509b5099509a5060808c3d6080116124c1575b8161249260809383613d51565b8101031261019b578b9a8b99606060406124b060208e519e01613f0c565b9e01519e01519a9c9d9a9b8f611fd7565b3d9150612485565b60846040517f08c379a000000000000000000000000000000000000000000000000000000000815260206004820152602660248201527f526563697069656e74206d7573742062652074686520706f736974696f6e206d60448201527f616e6167657200000000000000000000000000000000000000000000000000006064820152fd5b60646040517f08c379a000000000000000000000000000000000000000000000000000000000815260206004820152601060248201527f4578706972656420646561646c696e65000000000000000000000000000000006044820152fd5b60646040517f08c379a000000000000000000000000000000000000000000000000000000000815260206004820152600f60248201527f496e76616c696420616d6f756e747300000000000000000000000000000000006044820152fd5b5087511515611e7c565b60646040517f08c379a000000000000000000000000000000000000000000000000000000000815260206004820152601260248201527f496e76616c6964207469636b2072616e676500000000000000000000000000006044820152fd5b7ffffffffffffffffffffffffffffffffffffffffffffffffffffffffffff2761813159150816126a4575b505f80611e6a565b620d89e8915013155f61269c565b60846040517f08c379a000000000000000000000000000000000000000000000000000000000815260206004820152602360248201527f5469636b2072616e6765206d69736d61746368696e67207469636b207370616360448201527f696e6700000000000000000000000000000000000000000000000000000000006064820152fd5b61274591508c5160020b61444d565b60020b155f611e50565b90506020813d602011612781575b8161276a60209383613d51565b8101031261019b5761277b90613f73565b5f611e36565b3d915061275d565b60846040517f08c379a000000000000000000000000000000000000000000000000000000000815260206004820152602a60248201527f496e76616c696420706f6f6c20706172616d733a20746f6b656e302c20746f6b60448201527f656e31206f7220666565000000000000000000000000000000000000000000006064820152fd5b506020813d602011612852575b8161282760209383613d51565b8101031261019b5761284d73ffffffffffffffffffffffffffffffffffffffff91613eeb565b611dd6565b3d915061281a565b9150506020813d602011612895575b8161287660209383613d51565b8101031261019b5760208d61288d611dc293613eeb565b915091611d59565b3d9150612869565b346109e35760407ffffffffffffffffffffffffffffffffffffffffffffffffffffffffffffffffc3601126109e3576004356128d7613c73565b815f52600160205273ffffffffffffffffffffffffffffffffffffffff60405f2054163303612af557815f52600860205260ff60405f2054161580612ae8575b612abc57815f52600160205260405f2073ffffffffffffffffffffffffffffffffffffffff82167fffffffffffffffffffffffff000000000000000000000000000000000000000082541617905573ffffffffffffffffffffffffffffffffffffffff7f00000000000000000000000000000000000000000000000000000000000000001690813b156109e3576040517f42842e0e00000000000000000000000000000000000000000000000000000000815230600482015273ffffffffffffffffffffffffffffffffffffffff8216602482015260448101849052915f908390606490829084905af1918215612ab15773ffffffffffffffffffffffffffffffffffffffff92612a9d575b5060ff6009541615612a62575b169033907f771a93a0ebcea83223a3544a30cd0c3471725bdc02f38c51de2fd707625c71d4608051608051a460805180f35b826080515260086020526040608051207fffffffffffffffffffffffffffffffffffffffffffffffffffffffffffffff008154169055612a30565b5f612aa791613d51565b5f60805283612a23565b6040513d5f823e3d90fd5b507fa9de8c6f000000000000000000000000000000000000000000000000000000005f5260045260245ffd5b5060ff6009541615612917565b7f8e4a23d6000000000000000000000000000000000000000000000000000000005f523360045260245ffd5b346109e35760407ffffffffffffffffffffffffffffffffffffffffffffffffffffffffffffffffc3601126109e357600435612c4c612b5e613c73565b612b6783613f81565b90835f526001602052604073ffffffffffffffffffffffffffffffffffffffff815f205416815190612b9882613cfc565b86825260208201526fffffffffffffffffffffffffffffffff828201526fffffffffffffffffffffffffffffffff60608201528151809581927ffc6f78650000000000000000000000000000000000000000000000000000000083526004830191909160606fffffffffffffffffffffffffffffffff8160808401958051855273ffffffffffffffffffffffffffffffffffffffff6020820151166020860152826040820151166040860152015116910152565b03815f73ffffffffffffffffffffffffffffffffffffffff7f0000000000000000000000000000000000000000000000000000000000000000165af1918215612ab1575f935f93612fa3575b5073ffffffffffffffffffffffffffffffffffffffff8082511691612cfc602082019383855116612cf66fffffffffffffffffffffffffffffffff60c0860151166fffffffffffffffffffffffffffffffff60e08701511693614e7e565b50614e7e565b50511690604051917f70a08231000000000000000000000000000000000000000000000000000000008352306004840152602083602481845afa928315612ab1575f93612f6d575b506040517fa9059cbb00000000000000000000000000000000000000000000000000000000815273ffffffffffffffffffffffffffffffffffffffff8516600482015260248101939093526020908390815f81604481015b03925af18015612ab157612f20575b73ffffffffffffffffffffffffffffffffffffffff9150511690604051907f70a08231000000000000000000000000000000000000000000000000000000008252306004830152602082602481865afa918215612ab1575f92612eea575b506040517fa9059cbb00000000000000000000000000000000000000000000000000000000815273ffffffffffffffffffffffffffffffffffffffff90911660048201526024810191909152906020908290815f81604481015b03925af18015612ab157612eac575b50816040937fa54e6c2fc0861aa9c991b26891d71059d517983b9e84b91020f42609c452eb9d60208651858152a382519182526020820152f35b6020813d602011612ee2575b81612ec560209383613d51565b810103126109e357604093612eda8492613ede565b509350612e72565b3d9150612eb8565b91506020823d602011612f18575b81612f0560209383613d51565b810103126109e357905190612e63612e09565b3d9150612ef8565b6020823d602011612f65575b81612f3960209383613d51565b810103126109e357612f5f73ffffffffffffffffffffffffffffffffffffffff92613ede565b50612dab565b3d9150612f2c565b92506020833d602011612f9b575b81612f8860209383613d51565b810103126109e357915191612d9c612d44565b3d9150612f7b565b909250612fc091935060403d604011610f5257610f448183613d51565b9290929185612c98565b346109e35760807ffffffffffffffffffffffffffffffffffffffffffffffffffffffffffffffffc3601126109e357600435602435906fffffffffffffffffffffffffffffffff82168092036109e35760443567ffffffffffffffff81116109e35761303a903690600401613e02565b9160643567ffffffffffffffff81116109e35761305b903690600401613e02565b825f52600160205273ffffffffffffffffffffffffffffffffffffffff60405f2054163303612af557825f52600160205273ffffffffffffffffffffffffffffffffffffffff60405f205416906130b184613f81565b92612710811161340b576fffffffffffffffffffffffffffffffff60a08501511602926fffffffffffffffffffffffffffffffff84169384036133de5761319f60406fffffffffffffffffffffffffffffffff61271082519761311389613c96565b8989520416602087018181525f838901819052606089019081524260808a0190815284517f0c49ccbe0000000000000000000000000000000000000000000000000000000081528a51600482015292516fffffffffffffffffffffffffffffffff16602484015260409099015160448301525160648201529651608488015295918290819060a4820190565b03815f73ffffffffffffffffffffffffffffffffffffffff7f0000000000000000000000000000000000000000000000000000000000000000165af18015612ab1576133c0575b50602073ffffffffffffffffffffffffffffffffffffffff82511691019073ffffffffffffffffffffffffffffffffffffffff825116604051917f70a08231000000000000000000000000000000000000000000000000000000008352306004840152602083602481845afa928315612ab1575f93613389575b50602073ffffffffffffffffffffffffffffffffffffffff6024955116604051958680927f70a082310000000000000000000000000000000000000000000000000000000082523060048301525afa938415612ab1575f94613345575b50935f988998979461332f947f2222b1b1f55330f28434a2cf3bd29ee12eda8d19767ba0b1dfd70ec6a7e3fb4b9894602098604051966132fc88613cdf565b875289870152604086015260608501526080840152600160a0840152600160c084015260e0830152610100820152614239565b604051908152a4604080515f81525f6020820152f35b9295919490979693506020833d602011613381575b8161336760209383613d51565b810103126109e3579151959692959094919390925f6132bd565b3d915061335a565b9392506020843d6020116133b8575b816133a560209383613d51565b810103126109e357925191926020613260565b3d9150613398565b6133d89060403d604011610f5257610f448183613d51565b506131e6565b7f4e487b71000000000000000000000000000000000000000000000000000000005f52601160045260245ffd5b7fc94232df000000000000000000000000000000000000000000000000000000005f5260045260245ffd5b346109e3575f7ffffffffffffffffffffffffffffffffffffffffffffffffffffffffffffffffc3601126109e357602060ff600954166040519015158152f35b346109e35760207ffffffffffffffffffffffffffffffffffffffffffffffffffffffffffffffffc3601126109e35773ffffffffffffffffffffffffffffffffffffffff6134c2613c50565b165f526002602052602073ffffffffffffffffffffffffffffffffffffffff60405f205416604051908152f35b346109e35760207ffffffffffffffffffffffffffffffffffffffffffffffffffffffffffffffffc3601126109e35760043561352a81613f81565b905f52600160205273ffffffffffffffffffffffffffffffffffffffff60405f20541673ffffffffffffffffffffffffffffffffffffffff8251169061363c602084019273ffffffffffffffffffffffffffffffffffffffff84511662ffffff6040870151166020606088015160020b91608089015160020b946fffffffffffffffffffffffffffffffff60a08b0151169473ffffffffffffffffffffffffffffffffffffffff6003541691604051988994859384937f1698ee820000000000000000000000000000000000000000000000000000000085526004850191604091949373ffffffffffffffffffffffffffffffffffffffff62ffffff9281606087019816865216602085015216910152565b03915afa938415612ab1575f94613a5d575b5060e073ffffffffffffffffffffffffffffffffffffffff946004604051809781937f3850c7bd000000000000000000000000000000000000000000000000000000008352165afa938415612ab1575f94613a2e575b506136b16136b791614845565b92614845565b5f9283828273ffffffffffffffffffffffffffffffffffffffff80831690821611613a23575b505073ffffffffffffffffffffffffffffffffffffffff86811690831681116139da57505061370d939450614f74565b73ffffffffffffffffffffffffffffffffffffffff8551169473ffffffffffffffffffffffffffffffffffffffff85511690604051957f313ce5670000000000000000000000000000000000000000000000000000000087526020876004818b5afa968715612ab1575f97613985575b5095602073ffffffffffffffffffffffffffffffffffffffff6004985116604051988980927f313ce5670000000000000000000000000000000000000000000000000000000082525afa918215612ab1575f92613949575b6004975060e06fffffffffffffffffffffffffffffffff60c0830151169101926fffffffffffffffffffffffffffffffff845116926127106138386007546fffffffffffffffffffffffffffffffff8361382f8389613e7e565b04985116613e7e565b0495895f52600260205273ffffffffffffffffffffffffffffffffffffffff60405f205416995f526002602052602073ffffffffffffffffffffffffffffffffffffffff60405f2054166040519c8d80927f313ce5670000000000000000000000000000000000000000000000000000000082525afa9a8b15612ab1575f9b61390d575b506040519b8c5260208c015260ff1660408b015260ff1660608a0152608089015260a088015260c087015260e086015261010085015261012084015261014083015260ff1661016082015261018090f35b909a506020813d602011613941575b8161392960209383613d51565b810103126109e35761393a90613e4e565b998c6138bc565b3d915061391c565b91506020873d60201161397d575b8161396460209383613d51565b810103126109e357613977600497613e4e565b916137d5565b3d9150613957565b96506020873d6020116139d2575b816139a060209383613d51565b810103126109e357602073ffffffffffffffffffffffffffffffffffffffff6139ca600499613e4e565b98505061377d565b3d9150613993565b9194509073ffffffffffffffffffffffffffffffffffffffff83161115613a18575092613a0c82613a12949583614f74565b93614f2d565b9061370d565b9350613a1292614f2d565b9350915089806136dd565b6136b7919450613a4f6136b19160e03d60e011610ea457610e8f8183613d51565b5050505050509491506136a4565b93506020843d602011613aa7575b81613a7860209383613d51565b810103126109e35760e0613aa073ffffffffffffffffffffffffffffffffffffffff95613eeb565b945061364e565b3d9150613a6b565b346109e35760207ffffffffffffffffffffffffffffffffffffffffffffffffffffffffffffffffc3601126109e35773ffffffffffffffffffffffffffffffffffffffff613afb613c50565b165f525f602052602060ff60405f2054166040519015158152f35b346109e35760207ffffffffffffffffffffffffffffffffffffffffffffffffffffffffffffffffc3601126109e357613b4d613c50565b335f525f60205260ff60405f20541615612af55773ffffffffffffffffffffffffffffffffffffffff167fffffffffffffffffffffffff000000000000000000000000000000000000000060065416176006555f80f35b346109e35760207ffffffffffffffffffffffffffffffffffffffffffffffffffffffffffffffffc3601126109e3576004355f526001602052602073ffffffffffffffffffffffffffffffffffffffff60405f205416604051908152f35b346109e3575f7ffffffffffffffffffffffffffffffffffffffffffffffffffffffffffffffffc3601126109e35760209073ffffffffffffffffffffffffffffffffffffffff600454168152f35b6004359073ffffffffffffffffffffffffffffffffffffffff821682036109e357565b6024359073ffffffffffffffffffffffffffffffffffffffff821682036109e357565b60a0810190811067ffffffffffffffff821117613cb257604052565b7f4e487b71000000000000000000000000000000000000000000000000000000005f52604160045260245ffd5b610120810190811067ffffffffffffffff821117613cb257604052565b6080810190811067ffffffffffffffff821117613cb257604052565b610160810190811067ffffffffffffffff821117613cb257604052565b60c0810190811067ffffffffffffffff821117613cb257604052565b90601f7fffffffffffffffffffffffffffffffffffffffffffffffffffffffffffffffe0910116810190811067ffffffffffffffff821117613cb257604052565b67ffffffffffffffff8111613cb257601f017fffffffffffffffffffffffffffffffffffffffffffffffffffffffffffffffe01660200190565b929192613dd882613d92565b91613de66040519384613d51565b8294818452818301116109e3578281602093845f960137010152565b9080601f830112156109e357816020613e1d93359101613dcc565b90565b9181601f840112156109e35782359167ffffffffffffffff83116109e357602083818601950101116109e357565b519060ff821682036109e357565b908160601b918083046c0100000000000000000000000014901517156133de57565b818102929181159184041417156133de57565b8115613e9b570490565b7f4e487b71000000000000000000000000000000000000000000000000000000005f52601260045260245ffd5b91908260409103126109e3576020825192015190565b519081151582036109e357565b519073ffffffffffffffffffffffffffffffffffffffff821682036109e357565b51906fffffffffffffffffffffffffffffffff821682036109e357565b919082039182116133de57565b9190811015613f465760051b0190565b7f4e487b71000000000000000000000000000000000000000000000000000000005f52603260045260245ffd5b51908160020b82036109e357565b90604051610100810181811067ffffffffffffffff821117613cb2576040525f8152602081015f8152604082015f815260608301915f835260808401925f845260a08501925f845260c086015f815260e08701925f84528799604051907f99fbab8800000000000000000000000000000000000000000000000000000000825260048201526101808160248173ffffffffffffffffffffffffffffffffffffffff7f0000000000000000000000000000000000000000000000000000000000000000165afa948515612ab1575f975f965f955f945f945f935f925f916140d0575b509362ffffff98969373ffffffffffffffffffffffffffffffffffffffff9f9573ffffffffffffffffffffffffffffffffffffffff9d9c9b9997946fffffffffffffffffffffffffffffffff9485809316905216905216905260020b905260020b9052169052169052169052565b9e9a9950509b5050975050915050610180883d82116141ab575b816140f86101809383613d51565b810103126109e35787516bffffffffffffffffffffffff8116036109e35761412260208901613eeb565b5061412f60408901613eeb565b9161413c60608a01613eeb565b9760808a01519562ffffff871687036109e3578a61415c60a08201613f73565b9461416960c08301613f73565b9361417660e08401613f0c565b926101400161418490613f0c565b9d6101600161419290613f0c565b939d979c9a98999895979495919492939192915f614062565b3d91506140ea565b519061ffff821682036109e357565b908160e09103126109e357805173ffffffffffffffffffffffffffffffffffffffff811681036109e357916141f960208301613f73565b91614206604082016141b3565b91614213606083016141b3565b91614220608082016141b3565b91613e1d60c061423260a08501613e4e565b9301613ede565b61428573ffffffffffffffffffffffffffffffffffffffff60208301511673ffffffffffffffffffffffffffffffffffffffff835116606084015160a08501519160e086015193614c1a565b6142d273ffffffffffffffffffffffffffffffffffffffff60408301511673ffffffffffffffffffffffffffffffffffffffff835116608084015160c08501519161010086015193614c1a565b73ffffffffffffffffffffffffffffffffffffffff8151165f526002602052602473ffffffffffffffffffffffffffffffffffffffff8060405f205416925116805f526002602052602073ffffffffffffffffffffffffffffffffffffffff60405f205416604051938480927f70a082310000000000000000000000000000000000000000000000000000000082523060048301525afa918215612ab1575f92614417575b506040517fa9059cbb00000000000000000000000000000000000000000000000000000000815273ffffffffffffffffffffffffffffffffffffffff90911660048201526024810191909152906020908290815f81604481015b03925af18015612ab1576143e25750565b6020813d60201161440f575b816143fb60209383613d51565b810103126109e35761440c90613ede565b50565b3d91506143ee565b91506020823d602011614445575b8161443260209383613d51565b810103126109e3579051906143d1614377565b3d9150614425565b9060020b908115613e9b5760020b0790565b6040517f23b872dd00000000000000000000000000000000000000000000000000000000815273ffffffffffffffffffffffffffffffffffffffff828116600483015230602483015260448201859052939594919392909216916020816064815f875af1908115612ab15785916146ae575b506040517f23b872dd00000000000000000000000000000000000000000000000000000000815273ffffffffffffffffffffffffffffffffffffffff9485166004820152306024820152604481019190915292169160208180606481015b03815f875af18015612ab15761466b575b506040517f095ea7b30000000000000000000000000000000000000000000000000000000081527f000000000000000000000000000000000000000000000000000000000000000073ffffffffffffffffffffffffffffffffffffffff16600482018190526024820195909552906020908290815f81604481015b03925af18015612ab157614627575b506040517f095ea7b300000000000000000000000000000000000000000000000000000000815273ffffffffffffffffffffffffffffffffffffffff909316600484015260248301919091526020908290815f81604481016143d1565b91906020833d602011614663575b8161464260209383613d51565b810103126109e3576143d193614659602094613ede565b50935090916145ca565b3d9150614635565b906020823d6020116146a6575b8161468560209383613d51565b810103126109e3576145bb60209161469d5f94613ede565b50925050614540565b3d9150614678565b90506020813d602011614700575b816146c960209383613d51565b810103126109e3578473ffffffffffffffffffffffffffffffffffffffff61452f936146f6602094613ede565b50935050906144d1565b3d91506146bc565b805190602081015190604081015160608201519060a06080840151930151936040519561473487613d35565b86526020860190815260408601918252606086019283526080860193845260a08601948552604051957f219f5d170000000000000000000000000000000000000000000000000000000087525160048701525160248601525160448501525160648401525160848301525160a482015260608160c4815f73ffffffffffffffffffffffffffffffffffffffff7f0000000000000000000000000000000000000000000000000000000000000000165af1908115612ab1575f915f915f916147fc575b50909192565b925050506060813d60601161483d575b8161481960609383613d51565b810103126109e35761482a81613f0c565b604060208301519201519091905f6147f6565b3d915061480c565b60020b5f811215614c1457805f03905b620d89e88211614bec576001821615614bc35770ffffffffffffffffffffffffffffffffff6ffffcb933bd6fad37aa2d162d1a5940015b169160028116614ba7575b60048116614b8b575b60088116614b6f575b60108116614b53575b60208116614b37575b60408116614b1b575b60808116614aff575b6101008116614ae3575b6102008116614ac7575b6104008116614aab575b6108008116614a8f575b6110008116614a73575b6120008116614a57575b6140008116614a3b575b6180008116614a1f575b620100008116614a03575b6202000081166149e8575b6204000081166149cd575b62080000166149b4575b5f12614987575b73ffffffffffffffffffffffffffffffffffffffff9063ffffffff811661497e5760ff5f5b169060201c011690565b60ff6001614974565b8015613e9b577fffffffffffffffffffffffffffffffffffffffffffffffffffffffffffffffff0461494f565b6b048a170391f7dc42444e8fa290910260801c90614948565b6d2216e584f5fa1ea926041bedfe9890920260801c9161493e565b916e5d6af8dedb81196699c329225ee6040260801c91614933565b916f09aa508b5b7a84e1c677de54f3e99bc90260801c91614928565b916f31be135f97d08fd981231505542fcfa60260801c9161491d565b916f70d869a156d2a1b890bb3df62baf32f70260801c91614913565b916fa9f746462d870fdf8a65dc1f90e061e50260801c91614909565b916fd097f3bdfd2022b8845ad8f792aa58250260801c916148ff565b916fe7159475a2c29b7443b29c7fa6e889d90260801c916148f5565b916ff3392b0822b70005940c7a398e4b70f30260801c916148eb565b916ff987a7253ac413176f2b074cf7815e540260801c916148e1565b916ffcbe86c7900a88aedcffc83b479aa3a40260801c916148d7565b916ffe5dee046a99a2a811c461f1969c30530260801c916148cd565b916fff2ea16466c96a3843ec78b326b528610260801c916148c4565b916fff973b41fa98c081472e6896dfb254c00260801c916148bb565b916fffcb9843d60f6159c9db58835c9266440260801c916148b2565b916fffe5caca7e10e4e61c3624eaa0941cd00260801c916148a9565b916ffff2e50f5f656932ef12357cf3c7fdcc0260801c916148a0565b916ffff97272373d413259a46990580e213a0260801c91614897565b70ffffffffffffffffffffffffffffffffff70010000000000000000000000000000000061488c565b7f2bc80f3a000000000000000000000000000000000000000000000000000000005f5260045ffd5b80614855565b73ffffffffffffffffffffffffffffffffffffffff90949293919416926040517f70a08231000000000000000000000000000000000000000000000000000000008152306004820152602081602481885afa908115612ab1575f91614e4c575b50614c87575b5050505050565b73ffffffffffffffffffffffffffffffffffffffff8516805f52600260205273ffffffffffffffffffffffffffffffffffffffff60405f2054168514155f14614d2557614d1995505f52600260205273ffffffffffffffffffffffffffffffffffffffff60405f20541660405194614cfe86613c96565b85526020850152604084015260608301526080820152615063565b505b5f80808080614c80565b5050505090604051907f70a08231000000000000000000000000000000000000000000000000000000008252306004830152602082602481865afa918215612ab1575f92614e16575b506040517fa9059cbb00000000000000000000000000000000000000000000000000000000815273ffffffffffffffffffffffffffffffffffffffff90911660048201526024810191909152906020908290815f81604481015b03925af18015612ab157614ddd575b50614d1b565b6020813d602011614e0e575b81614df660209383613d51565b810103126109e357614e0790613ede565b505f614dd7565b3d9150614de9565b91506020823d602011614e44575b81614e3160209383613d51565b810103126109e357905190614dc8614d6e565b3d9150614e24565b90506020813d602011614e76575b81614e6760209383613d51565b810103126109e357515f614c7a565b3d9150614e5a565b9190614e906127109160075490613e7e565b04809281614e9c575050565b6006546040517fa9059cbb00000000000000000000000000000000000000000000000000000000815273ffffffffffffffffffffffffffffffffffffffff91821660048201526024810193909352602091839160449183915f91165af18015612ab1576143e25750565b906c0100000000000000000000000082018092116133de57565b919082018092116133de57565b73ffffffffffffffffffffffffffffffffffffffff6fffffffffffffffffffffffffffffffff91613e1d949382811683831611614f6e575b031691166152fb565b90614f65565b90613e1d9273ffffffffffffffffffffffffffffffffffffffff821673ffffffffffffffffffffffffffffffffffffffff841611614ffe575b81614ff6917bffffffffffffffffffffffffffffffff00000000000000000000000073ffffffffffffffffffffffffffffffffffffffff86818097169403169160601b1661537c565b911690613e91565b909190614fad565b91908251928382525f5b84811061504e5750507fffffffffffffffffffffffffffffffffffffffffffffffffffffffffffffffe0601f845f6020809697860101520116010190565b80602080928401015182828601015201615010565b608081018051511561527e57906150e49161511073ffffffffffffffffffffffffffffffffffffffff60045416915160405194859173ffffffffffffffffffffffffffffffffffffffff7f00000000000000000000000000000000000000000000000000000000000000001660208401526040808401526060830190615006565b037fffffffffffffffffffffffffffffffffffffffffffffffffffffffffffffffe08101855284613d51565b91905b6151d773ffffffffffffffffffffffffffffffffffffffff825116926151ab73ffffffffffffffffffffffffffffffffffffffff602085015116916060604086015195015160405195869460208601987f2506c018000000000000000000000000000000000000000000000000000000008a52602487015260448601526064850152608484015260a060a484015260c4830190615006565b037fffffffffffffffffffffffffffffffffffffffffffffffffffffffffffffffe08101835282613d51565b823b1561523c57515f928392905af43d15615234573d906151f782613d92565b916152056040519384613d51565b82523d5f602084013e5b1561522c57602081519181808201938492010103126109e3575190565b602081519101fd5b60609061520f565b73ffffffffffffffffffffffffffffffffffffffff837f36635bdb000000000000000000000000000000000000000000000000000000005f521660045260245ffd5b5073ffffffffffffffffffffffffffffffffffffffff60055416906040519173ffffffffffffffffffffffffffffffffffffffff7f00000000000000000000000000000000000000000000000000000000000000001660208401523060408401525f6060840152606083526152f4608084613d51565b9190615113565b5f917fffffffffffffffffffffffffffffffffffffffffffffffffffffffffffffffff818309918181029384808510940393808503941461537257836c01000000000000000000000000111561536f5750906c01000000000000000000000000910990828211900360a01b910360601c1790565b80fd5b5050505060601c90565b917fffffffffffffffffffffffffffffffffffffffffffffffffffffffffffffffff828409928281029283808610950394808603951461541257848311156109e35782910981805f03168092046002816003021880820260020302808202600203028082026002030280820260020302808202600203028091026002030293600183805f03040190848311900302920304170290565b5050809250156109e357049056fea26469706673582212204f9bb46c04b6c6707297a4eb3a9423ee0956ed742bdd9b3f734d4654fb220a6364736f6c634300081c0033","linkReferences":{}},"methodIdentifiers":{"accountingUnit(address)":"4a3ec2cc","admins(address)":"429b62e5","allTransfersApproved()":"4a8842e0","approvePositionTransfers(uint256[],bool)":"63f563ee","closePosition(uint256,bytes,bytes,uint256,uint256)":"9b5605f7","collectFees(uint256,address)":"51f3b4bd","compoundPosition(uint256,bytes,bytes,uint256,uint256)":"ea1ed860","decreaseLiquidity(uint256,uint128,bytes,bytes)":"5159ddfe","feeRecipientAddress()":"f1bab2ec","getSwapInfo(uint256)":"45e9178d","increaseLiquidity(uint256,uint256,uint256)":"e115bc5c","nonfungiblePositionManager()":"b44a2722","openPosition((address,address,uint24,int24,int24,uint256,uint256,uint256,uint256,address,uint256),address,address)":"5eec1815","owners(uint256)":"025e7c27","paraswapRouter()":"a2017d51","paraswapSwapManager()":"00c4b816","protocolFee()":"b0e21e8a","setAccountingUnit(address,address)":"9584220e","setAdmin(address)":"704b6c02","setAllTransfersApproved(bool)":"8137c5b9","setFeeRecpientAddress(address)":"0ac28c44","setProtocolFee(uint256)":"787dce3d","transferApproved(uint256)":"cbcb6784","transferPosition(uint256,address)":"55bd513f","uniswapRouter()":"735de9f7","uniswapV3SwapManager()":"6e8e2cd4","uniswapV3factory()":"eae642c9"},"id":61}